:100000000C942A000C9434000C9434000C943400AA
:100010000C9434000C9434000C9434000C94340090
:100020000C9434000C9434000C9434000C94340080
:100030000C9434000C9434000C9434000C94340070
:100040000C9434000C9434000C9434000C94340060
:100050000C94340011241FBECFE5D8E0DEBFCDBF25
:100060000E9436000C94CD000C940000DF93CF93D7
:1000700000D0CDB7DEB784E390E02FEFFC01208302
:100080001A82198280E090E00E9459009A83898345
:1000900089819A81F1E080399F0728F485E390E017
:1000A000FC011082EFCF85E390E02FEFFC0120836D
:1000B000E9CFDF93CF9300D000D00F92CDB7DEB75A
:1000C0009D838C831B821A8286E290E023E8FC01E8
:1000D000208387E290E02C81FC01208387E290E07E
:1000E00027E230E0F9012081206CFC01208386E2C8
:1000F00090E026E230E0F90120812064FC012083B9
:10010000000086E290E0FC018081882F90E08074FE
:1001100090700097B1F7198222C086E290E026E243
:1001200030E0F90120812064FC012083000086E298
:1001300090E0FC018081882F90E08074907000979F
:10014000B1F784E290E0FC01808191812A813B81BA
:10015000820F931F9B838A8389818F5F8983898123
:100160008430D8F286E290E026E230E0F901208186
:100170002F77FC0120838A819B81969587959695A0
:1001800087959B838A838A819B810F900F900F9024
:0E0190000F900F90CF91DF910895F894FFCF5C
:00000001FF
