:100000000C942A000C9449000C9473000C94470043
:100010000C9447000C9447000C9447000C94470044
:100020000C9447000C9447000C9447000C94470034
:100030000C9447000C9447000C9447000C94470024
:100040000C9447000C9447000C9447000C94470014
:100050000C94470011241FBECFE5D8E0DEBFCDBF12
:1000600010E0A0E6B0E0E2EDF1E002C005900D92F4
:10007000A236B107D9F710E0A2E6B0E001C01D92A8
:10008000A436B107E1F70E949A000C94E7000C94A3
:1000900000001F920F920FB60F9211248F939F931F
:1000A000DF93CF93CDB7DEB780916200909163006C
:1000B000019690936300809362008091620090911A
:1000C00063008430910534F083E090E09093630006
:1000D00080936200CF91DF919F918F910F900FBE1F
:1000E0000F901F9018951F920F920FB60F92112428
:1000F0008F939F93DF93CF93CDB7DEB7809162004C
:1001000090916300019790936300809362008091C7
:10011000620090916300992324F41092630010927E
:100120006200CF91DF919F918F910F900FBE0F9042
:100130001F901895DF93CF93CDB7DEB787E390E09C
:100140002FEFFC01208388E390E023E3FC01208370
:1001500081E390E0FC0110828BE590E020ECFC0153
:10016000208385E590E025E530E0F90120812260DB
:10017000FC01208385E590E025E530E0F901208150
:100180002E7FFC01208385E590E025E530E0F90134
:1001900020812860FC01208385E590E025E530E0A2
:1001A000F90120812B7FFC0120837894209162004B
:1001B000309163008EEF90E0022E02C0880F991FED
:1001C0000A94E2F79093610080936000EFCFF89477
:0201D000FFCF5F
:0201D200FE002D
:00000001FF
