:100000000C942A000C9447000C9447000C94470071
:100010000C9447000C9447000C9447000C94470044
:100020000C9447000C9447000C9447000C94470034
:100030000C9447000C9447000C9447000C94470024
:100040000C9447000C9447000C9447000C94470014
:100050000C94470011241FBECFE5D8E0DEBFCDBF12
:1000600010E0A0E6B0E0EAE5F9E102C005900D92EB
:10007000A037B107D9F710E0A0E7B0E001C01D92AA
:10008000A237B107E1F70E9488030C94AB0C0C94E3
:100090000000DF93CF9300D000D0CDB7DEB76983E7
:1000A0007A838B839C8389819A81AB81BC81009701
:1000B000A105B10511F400C00AC089819A81AB8104
:1000C000BC810197F1F789839A83AB83BC830F903E
:1000D0000F900F900F90CF91DF910895DF93CF9302
:1000E00000D000D0CDB7DEB769837A838B839C8341
:1000F00089819A81AB81BC8128EE33E040E050E0F9
:10010000BC01CD010E948109DC01CB0128EE33E066
:1001100040E050E0BC01CD010E94A009DA01C90114
:10012000BC01CD010E9449000F900F900F900F90DD
:10013000CF91DF910895DF93CF93CDB7DEB788E3FA
:1001400090E028E330E0F90120812062FC01208367
:1001500000C088E390E028E330E0F90120812F7DA2
:10016000FC012083CF91DF910895DF93CF9300D0DE
:10017000CDB7DEB789836A838A81882351F088E30B
:1001800090E028E330E0F90120812064FC01208325
:1001900009C088E390E028E330E0F90120812F7B5B
:1001A000FC01208387E390E027E330E0F901208120
:1001B0002260FC01208387E390E027E330E0F9012F
:1001C00020812460FC01208387E390E027E330E076
:1001D000F90120812860FC01208387E390E027E378
:1001E00030E0F90120812061FC01208388E390E068
:1001F00028E330E0F90120812F7EFC01208388E391
:1002000090E028E330E0F9012081277FFC01208382
:1002100088E390E028E330E0F90120812B7FFC01A6
:10022000208388E390E028E330E0F90120812D7FEE
:10023000FC012083898188234CF488E390E028E343
:1002400030E0F90120812061FC0120838981882F21
:1002500090E080749070009749F088E390E028E384
:1002600030E0F90120812860FC0120838981882FFA
:1002700090E080729070009749F088E390E028E366
:1002800030E0F90120812460FC0120838981882FDE
:1002900090E080719070009749F088E390E028E347
:1002A00030E0F90120812260FC0120830E949B0044
:1002B00088E390E028E330E0F90120812F7EFC0103
:1002C000208388E390E028E330E0F9012081277F54
:1002D000FC01208388E390E028E330E0F9012081ED
:1002E0002B7FFC01208388E390E028E330E0F901D4
:1002F00020812D7FFC0120838981882F90E08870E8
:100300009070009749F088E390E028E330E0F9012D
:1003100020812061FC0120838981882F90E08470F6
:100320009070009749F088E390E028E330E0F9010D
:1003300020812860FC0120838981882F90E08270D1
:100340009070009749F088E390E028E330E0F901ED
:1003500020812460FC0120838981882F90E08170B6
:100360009070882349F088E390E028E330E0F901B9
:1003700020812260FC0120830E949B0088E390E0A2
:1003800028E330E0F90120812260FC01208388E32A
:1003900090E028E330E0F90120812460FC01208313
:1003A00088E390E028E330E0F90120812860FC0137
:1003B000208388E390E028E330E0F9012081206188
:1003C000FC0120830F900F90CF91DF910895DF9370
:1003D000CF930F92CDB7DEB7898389818A3099F4A4
:1003E00080917000909171001816190624F480E035
:1003F0000E94B4020CC080917000909171008F5FD8
:100400000E94B40204C0898161E00E94B5000F908F
:10041000CF91DF910895DF93CF930F92CDB7DEB7E1
:100420008983898160E00E94B5000F90CF91DF91B0
:100430000895DF93CF93CDB7DEB787E390E027E34E
:1004400030E0F90120812064FC01208387E390E003
:1004500027E330E0F90120812062FC01208387E35B
:1004600090E027E330E0F90120812260FC01208345
:1004700087E390E027E330E0F90120812460FC016C
:10048000208387E390E027E330E0F90120812860B2
:10049000FC01208387E390E027E330E0F90120812D
:1004A0002061FC01208360E87EE380E090E00E9410
:1004B0006E0088E390E028E330E0F90120812460B9
:1004C000FC01208388E390E028E330E0F9012081FB
:1004D0002260FC0120830E949B0060E873E180E0C1
:1004E00090E00E946E000E949B0060E470E080E05B
:1004F00090E00E946E0088E390E028E330E0F9018C
:1005000020812D7FFC0120830E949B0068EE73E018
:1005100080E090E00E946E000E946C0388E20E94DE
:100520000B020E949B0068EE73E080E090E00E9466
:100530006E0086E00E940B020E949B0068EE73E052
:1005400080E090E00E946E008FE00E940B020E940B
:100550009B0068EE73E080E090E00E946E000E94D5
:100560007A03CF91DF910895DF93CF9300D0CDB779
:10057000DEB78A8319828A81882F90E081309105C5
:1005800079F0823091051CF4009741F012C082305E
:10059000910549F08330910549F00BC019820BC0D9
:1005A00080E4898308C084E1898305C084E5898368
:1005B00002C0198200008A81882F90E09093710018
:1005C00080937000898180580E940B020F900F90D9
:1005D000CF91DF910895DF93CF9300D00F92CDB7E5
:1005E000DEB79B838A8303C089810E94E7018A81E9
:1005F0009B81FC018081898321E08981882309F422
:1006000020E08A819B8101969B838A83222361F764
:100610000F900F900F90CF91DF910895DF93CF93BC
:10062000CDB7DEB7C650D1400FB6F894DEBF0FBECF
:10063000CDBF80E091E09A83898389819A81019777
:100640009C838B839E01235F3E4FCE018B5F9E4F29
:10065000FC013183208389819A810197BC01CE01FD
:100660008B5F9E4FFC0120813181CE010596C55FD5
:10067000DE4F48815981CB50D1400E94F909CE010B
:1006800005960E94EB02CA5FDE4F0FB6F894DEBFFC
:100690000FBECDBFCF91DF910895DF93CF9300D0F0
:1006A000CDB7DEB789836A838A81882F90E000976F
:1006B00021F08130910531F00AC0898180580E9473
:1006C0000B0205C0898180540E940B0200000F902C
:1006D0000F90CF91DF910895DF93CF93CDB7DEB721
:1006E000109271001092700081E00E940B02CF9175
:1006F000DF910895DF93CF93CDB7DEB710927100ED
:100700001092700082E00E940B02CF91DF91089559
:100710000F931F93DF93CF93CDB7DEB765970FB6D7
:10072000F894DEBF0FBECDBF0E9419020E946C0379
:10073000CE010F9620E630E047E0F90100802F5F00
:100740003F4FFC010082019641504423B1F70E94C3
:100750006C030E946C0300D08DB79EB701969E017A
:10076000215F3F4FFC01318320830E940E030F90D5
:100770000F908F858F878F5F8F8780E090E5A3EC48
:10078000B7E489839A83AB83BC8369817A818B8147
:100790009C8120E030E04AE753E40E941506DC012A
:1007A000CB018D839E83AF83B88711E06D817E81FD
:1007B0008F81988520E030E040E85FE30E946F077A
:1007C00088230CF010E0112329F081E090E09A8753
:1007D000898746C011E06D817E818F81988520E0F8
:1007E0003FEF4FE757E40E940F0718160CF010E098
:1007F000112361F169817A818B819C8120E030E055
:1008000040E251E40E941506DC01CB01BC01CD01A0
:100810000E944104DC01CB019A87898712C089E1DB
:1008200090E09C878B878B859C858C01C801019704
:10083000F1F78C011C870B8789859A8501979A8728
:10084000898789859A85009751F717C06D817E81C8
:100850008F8198850E944104DC01CB019A878987AA
:1008600089859A859E878D878D859E858C01F80167
:100870003197F1F78F011E870D8788898F5F888BED
:1008800068CFEF92FF920F931F937B018C0120E0C2
:1008900030E040E05FE40E943F0787FD11C0C801DF
:1008A000B70120E030E040E05FE40E94E4050E94F0
:1008B0009F079B01AC01205030404040504806C08B
:1008C000C801B7010E949F079B01AC01B901CA0191
:1008D0001F910F91FF90EF900895A0E0B0E0E3E743
:1008E000F4E00C94C609FC01EA018081823008F42E
:1008F00038C1DB019C91923008F430C1843059F446
:10090000943009F02EC1918111968C91119798170E
:1009100009F021C126C1943009F420C19230B1F40C
:10092000823009F01EC1CA01AF0128E0DA010D9042
:10093000AD01DC010D92CD012150C1F7DB01119613
:100940008C9111979181892389830AC1823009F49E
:1009500005C1C280D380DB0112966D907C90139705
:1009600024813581468157811496ED90FD900D913B
:100970001C911797C601861997095C0197FF04C05F
:10098000AA24BB24A81AB90AB0E2AB16B1040CF031
:1009900061C0181619066CF5370148010A2C04C00D
:1009A00096948794779467940A94D2F781E090E0C4
:1009B000A0E0B0E00A2C04C0880F991FAA1FBB1F3B
:1009C0000A94D2F70197A109B1098E219F21A02392
:1009D000B123EE24FF248701E3940097A105B1051C
:1009E00019F4EE24FF248701E628F728082919299D
:1009F0003CC00097D1F1CA0CDB1C39014A010A2C1A
:100A000004C096948794779467940A94D2F781E00F
:100A100090E0A0E0B0E00A2C04C0880F991FAA1F44
:100A2000BB1F0A94D2F70197A109B109822393232E
:100A3000A423B52321E030E040E050E00097A10579
:100A4000B10519F420E030E0A90126293729482909
:100A500059290BC06C147D0424F4EE24FF24870173
:100A600004C0630120E030E0A9018181FB01918194
:100A7000891709F445C0882349F0D801C701821BB2
:100A8000930BA40BB50B9C01AD0104C02E193F09BB
:100A9000400B510B57FD04C01982DB82CA820BC088
:100AA00081E08983DB82CA825095409530952195FB
:100AB0003F4F4F4F5F4F2C833D834E835F830DC06D
:100AC000880F991FAA1FBB1F8C839D83AE83BF8392
:100AD0008A819B8101979B838A838C819D81AE81D2
:100AE000BF819C01AD0121503040404050402F3F1C
:100AF000EFEF3E07EFEF4E07EFE35E0708F30BC0A3
:100B00008983DB82CA822E0D3F1D401F511F2C831B
:100B10003D834E835F8383E088832C813D814E81BA
:100B20005F8157FF1DC0DA01C90181709070A0700C
:100B3000B0705695479537952795822B932BA42B0C
:100B4000B52B8C839D83AE83BF838A819B81019665
:100B50009B838A8305C0E7E6F0E003C0FB0101C088
:100B6000FE01CF01CDB7DEB7EEE00C94E209A0E2C2
:100B7000B0E0EDEBF5E00C94CE0969837A838B83CA
:100B80009C832D833E834F83588789E0E82EF12C88
:100B9000EC0EFD1ECE010196B7010E94BF088E012A
:100BA0000F5E1F4FCE010596B8010E94BF08C70116
:100BB000B801AE01475E5F4F0E946D040E94F107CD
:100BC000A096E6E00C94EA09A0E2B0E0EAEEF5E0D7
:100BD0000C94CE0969837A838B839C832D833E8317
:100BE0004F8358878E01075F1F4FCE010196B801D2
:100BF0000E94BF0891E1E92EF12CEC0EFD1ECE0102
:100C00000596B7010E94BF088A8991E089278A8BDF
:100C1000C801B701AE01475E5F4F0E946D040E949C
:100C2000F107A096E6E00C94EA09A0E2B0E0EBE15F
:100C3000F6E00C94C20969837A838B839C832D83AD
:100C40003E834F835887CE010196BE01675F7F4F79
:100C50000E94BF08CE010596BE016F5E7F4F0E94C5
:100C6000BF089985923078F089898230C0F094303D
:100C700019F4823041F4CBC0843019F4923079F405
:100C8000C6C0923051F481E02A859A89291709F467
:100C900080E08A87CE010996BCC0823051F481E0A1
:100CA0002A859A89291709F480E08A8BCE0141961A
:100CB000B0C06D847E848F849888ED88FE880F890B
:100CC000188DE0E2F0E080E090E0DC01AA24BB2493
:100CD000650120E030E0A901B30161707070611519
:100CE0007105D1F02E0D3F1D401F511F150126012A
:100CF000280E391E4A1E5B1E81E090E0A0E0B0E0A5
:100D00002E153F054007510718F080E090E0DC0108
:100D1000820D931DA41DB51DAA0CBB1CCC1CDD1C93
:100D200017FF09C061E0262E312C412C512CA2283E
:100D3000B328C428D528319749F0EE0CFF1C001FBA
:100D4000111F9694879477946794C6CF6B897C899A
:100D5000EB85FC856E0F7F1F6E5F7F4F7C8F6B8FE7
:100D600061E0EA857A89E71709F460E06A8F6B8DA4
:100D70007C8D10C0FC01E170F070309729F0569521
:100D80004795379527955068B695A7959795879578
:100D90006F5F7F4FB7FDEECF0CC0880F991FAA1F62
:100DA000BB1F57FD8160220F331F441F551F615029
:100DB00070408030E0E09E07E0E0AE07E0E4BE0770
:100DC00060F36B8F7C8F6FE7E62EF12C012D112DD8
:100DD000E822F9220A231B2360E4E616F104010548
:100DE000110561F487FD0AC0211531054105510542
:100DF00029F0805C9F4FAF4FBF4F80788D8F9E8FC3
:100E0000AF8FB8A383E0898FCE01499602C087E6F1
:100E100090E00E94F107A096E2E10C94DE09A8E1BF
:100E2000B0E0E5E1F7E00C94CE0969837A838B8327
:100E30009C832D833E834F8358878E01075F1F4F0E
:100E4000CE010196B8010E94BF0881E1E82EF12C85
:100E5000EC0EFD1ECE010596B7010E94BF088985E4
:100E6000823040F08989823028F0C801B7010E94A1
:100E7000280901C08FEF6896E6E00C94EA09A8E122
:100E8000B0E0E5E4F7E00C94CE0969837A838B83C4
:100E90009C832D833E834F8358878E01075F1F4FAE
:100EA000CE010196B8010E94BF0881E1E82EF12C25
:100EB000EC0EFD1ECE010596B7010E94BF08898584
:100EC000823040F08989823028F0C801B7010E9441
:100ED000280901C08FEF6896E6E00C94EA09A8E1C2
:100EE000B0E0E5E7F7E00C94CE0969837A838B8361
:100EF0009C832D833E834F8358878E01075F1F4F4E
:100F0000CE010196B8010E94BF0881E1E82EF12CC4
:100F1000EC0EFD1ECE010596B7010E94BF08898523
:100F2000823040F08989823028F0C801B7010E94E0
:100F3000280901C081E06896E6E00C94EA09ACE07B
:100F4000B0E0E5EAF7E00C94D20969837A838B83F9
:100F50009C83CE010196BE016B5F7F4F0E94BF084C
:100F60008D81823081F1823070F1843021F48E8164
:100F7000882369F10AC02F81388537FD24C06E812E
:100F80002F3131053CF0662311F120E030E040E0E4
:100F900050E821C08EE190E0821B930B29853A85B1
:100FA0004B855C8504C056954795379527958A955E
:100FB000D2F7662381F050954095309521953F4FAB
:100FC0004F4F5F4F08C020E030E0A90104C02FEF71
:100FD0003FEF4FEF5FE7B901CA012C96E2E00C94B6
:100FE000EE09EF92FF920F931F93CF93DF93FC01D3
:100FF000248135814681578161818081823020F44E
:101000004061EFEFF0E0A3C0843009F49BC0823070
:1010100009F492C0211531054105510509F48FC02D
:101020000280F381E02D8FEFE238F8070CF05AC010
:10103000C2E8DFEFCE1BDF0BCA31D1056CF57901B9
:101040008A010C2E04C016950795F794E7940A942C
:10105000D2F781E090E0A0E0B0E00C2E04C0880F51
:10106000991FAA1FBB1F0A94D2F70197A109B109C2
:1010700082239323A423B52321E030E040E050E015
:101080000097A105B10519F420E030E0A9012E294F
:101090003F29402B512B03C020E030E0A901DA01A9
:1010A000C9018F779070A070B07080349105A10550
:1010B000B10539F427FF09C0205C3F4F4F4F5F4F08
:1010C00004C0215C3F4F4F4F5F4FE1E0F0E0203024
:1010D00080E0380780E0480780E4580728F5E0E022
:1010E000F0E022C0E038F1056CF5E158FF4FDA017D
:1010F000C9018F779070A070B07080349105A10500
:10110000B10539F427FF09C0205C3F4F4F4F5F4FB7
:1011100004C0215C3F4F4F4F5F4F57FF05C05695AE
:10112000479537952795319687E05695479537959A
:1011300027958A95D1F70BC0E0E0F0E005C0E0E02C
:10114000F0E005C0EFEFF0E020E030E0A9018E2FE5
:10115000879588278795942F9F776795662767954A
:10116000E695E22EA92FA82BFE2FF62B622F732FC8
:101170008A2F9F2FCDB7DEB7E6E00C94EA09DC0199
:10118000FB012C9111963C91119712968C9112971C
:10119000482F4F7750E0982F991F9927991F139642
:1011A0006C911397862F880F892B90E0661F662716
:1011B000661F6183009739F52115310541055105F9
:1011C00011F482E029C082E89FEF9383828367E075
:1011D000220F331F441F551F6A95D1F783E0808388
:1011E00009C0220F331F441F551F8281938101972D
:1011F00093838283203080E0380780E0480780E4D2
:10120000580778F320C08F3F910579F421153105F7
:101210004105510519F484E08083089544FF03C01B
:1012200081E0808310C010820EC08F57904093835E
:10123000828383E0808387E0220F331F441F551F82
:101240008A95D1F750642483358346835783089564
:10125000FC01DB019081923008F449C08C9182300E
:1012600008F445C0943051F461818430B1F5119691
:101270002C91119730E0261B310941C0843021F0B8
:10128000923041F48230B1F111968C9111978823FC
:10129000A1F12DC06181823001F111968C911197DD
:1012A0006817D9F42281338112968D919C911397FE
:1012B0008217930794F028173907BCF024813581F1
:1012C0004681578114968D919D910D90BC91A02DD2
:1012D00082179307A407B50718F4662341F00DC0E1
:1012E000281739074A075B0728F4662331F021E005
:1012F00030E005C020E030E002C02FEF3FEFC90131
:101300000895629FD001739FF001829FE00DF11D4F
:10131000649FE00DF11D929FF00D839FF00D749F6F
:10132000F00D659FF00D9927729FB00DE11DF91F1B
:10133000639FB00DE11DF91FBD01CF011124089578
:10134000A1E21A2EAA1BBB1BFD010DC0AA1FBB1FC9
:10135000EE1FFF1FA217B307E407F50720F0A21B3B
:10136000B30BE40BF50B661F771F881F991F1A94A8
:1013700069F760957095809590959B01AC01BD01D2
:10138000CF0108952F923F924F925F926F927F927A
:101390008F929F92AF92BF92CF92DF92EF92FF9285
:1013A0000F931F93CF93DF93CDB7DEB7CA1BDB0B31
:1013B0000FB6F894DEBF0FBECDBF09942A883988D6
:1013C00048885F846E847D848C849B84AA84B984DD
:1013D000C884DF80EE80FD800C811B81AA81B981E9
:1013E000CE0FD11D0FB6F894DEBF0FBECDBFED01FD
:1013F0000895AEE0B0E0EFEFF9E00C94D0098C0175
:10140000CB01BA0146E04C831A83098397FF02C0DF
:1014100080E090E801979E838D83CE010196A9011B
:101420000E94240A4D815E8157FD0AC02F813885B4
:10143000421753070CF49A01020F131FF801108290
:101440002E96E4E00C94EC09ACE0B0E0EAE2FAE0BD
:101450000C94C2096C011B018A01FC0117821682DF
:10146000838181FFD1C12E010894411C511CF601DA
:101470009381F10193FD859193FF81911F01882351
:1014800009F4BEC1853239F493FD859193FF8191B2
:101490001F01853229F490E0B6010E94210CE7CFAC
:1014A000EE24FF2420E02032B0F48B3269F08C323D
:1014B00028F4803251F0833271F40BC08D3239F050
:1014C000803349F421602CC02260246029C0286048
:1014D00027C0206125C027FD2CC0382F30533A305B
:1014E00098F426FF08C08E2D880FE82EEE0CEE0C27
:1014F000E80EE30E15C08F2D880FF82EFF0CFF0CA1
:10150000F80EF30E20620CC08E3221F426FD78C155
:10151000206406C08C3611F4206802C0883649F475
:10152000F10193FD859193FF81911F01882309F0BB
:10153000BACF982F9554933018F09052933028F4E6
:101540000C5F1F4FFFE3F9830DC0833631F0833703
:1015500071F0833509F060C022C0F8018081898371
:101560000E5F1F4F420171E0A72EB12C16C062E042
:10157000662E712C600E711EF8018080918026FF0E
:1015800003C06E2D70E002C06FEF7FEFC4012C87A7
:101590000E94160C5C0183012C852F7717C052E046
:1015A000652E712C600E711EF8018080918026FFDF
:1015B00003C06E2D70E002C06FEF7FEFC4012C8777
:1015C0000E940B0C5C012C852068830123FD20C048
:1015D00008C080E290E0B6012C870E94210CFA94AA
:1015E0002C858F2D90E0A816B90698F311C0F40150
:1015F00027FD859127FF81914F0190E0B6012C874F
:101600000E94210C2C85F110FA940894A108B108CD
:10161000A114B10461F7F1C0843611F0893649F59F
:1016200027FF08C0F80160817181828193810C5F7E
:101630001F4F09C0F80160817181882777FD80956F
:10164000982F0E5F1F4F4FE6B42EB22297FF09C0AE
:1016500090958095709561957F4F8F4F9F4FF0E8E3
:10166000BF2AA2012AE030E00E944D0C782E7418A7
:1016700045C0853731F43FEEB32EB2222AE030E088
:1016800025C099EFB92EB2228F36C1F0803720F4F1
:10169000883509F0B5C00DC0803721F0883709F0D2
:1016A000AFC002C020E1B22AB4FE0BC084E0B82A69
:1016B00008C0B4FE09C0E6E0BE2A06C028E030E05B
:1016C00005C020E130E002C020E132E0B7FE08C0F2
:1016D000F80160817181828193810C5F1F4F07C087
:1016E000F8016081718180E090E00E5F1F4FA201E0
:1016F0000E944D0C782E7418FFE7BF22B6FE0BC077
:101700002EEFB2227E1438F4B4FE07C0B2FC05C03E
:101710008FEEB82202C0A72C01C0AE2C8B2D90E01A
:10172000B4FE0DC0FE01E70DF11D2081203319F438
:10173000E9EEBE2209C0A394B2FE06C004C08678BA
:101740009070009709F0A3948B2C9924B3FC14C0DB
:10175000B0FE0FC0AF1428F4E72CEF0CEA18AF2C42
:1017600008C0E72C06C080E290E0B6010E94210C80
:10177000A394AF14C0F304C0AF1410F4FA1801C05E
:10178000FF2484FE0FC080E390E0B6010E94210C8C
:1017900082FE1FC081FE03C088E590E010C088E78C
:1017A00090E00DC0C40186789070009791F081FCA4
:1017B00002C080E201C08BE2B7FC8DE290E0B6018E
:1017C0000E94210C06C080E390E0B6010E94210C2B
:1017D000EA947E14C0F37A94F201E70DF11D808142
:1017E00090E0B6010E94210C7720A9F706C080E2A4
:1017F00090E0B6010E94210CFA94FF20C1F737CE89
:10180000F6012681378102C02FEF3FEFC9012C96E8
:10181000E2E10C94DE09FC0105906150704001107A
:10182000D8F7809590958E0F9F1F0895FC01615009
:10183000704001900110D8F7809590958E0F9F1FF2
:1018400008950F931F93CF93DF938C01EB018B814E
:1018500081FF1BC082FF0DC02E813F818C819D8145
:101860002817390764F4E881F9810193F983E88343
:1018700006C0E885F985802F0995009731F48E819F
:101880009F8101969F838E8302C00FEF1FEFC801D7
:10189000DF91CF911F910F910895FA01AA27283067
:1018A00051F1203181F1E8946F936E7F6E5F7F4F2D
:1018B0008F4F9F4FAF4FB1E03ED0B4E03CD0670FA9
:1018C000781F891F9A1FA11D680F791F8A1F911DFC
:1018D000A11D6A0F711D811D911DA11D20D009F44C
:1018E00068943F912AE0269F11243019305D31938E
:1018F000DEF6CF010895462F4770405D4193B3E077
:101900000FD0C9F7F6CF462F4F70405D4A3318F01D
:10191000495D31FD4052419302D0A9F7EACFB4E0CE
:10192000A6959795879577956795BA95C9F7009786
:101930006105710508959B01AC010A2E0694579527
:10194000479537952795BA95C9F7620F731F841F7E
:0A195000951FA01D0895F894FFCF25
:10195A006162636465660000000000000000000028
:00000001FF
