:100000000C942A000C9441000C946E000C943F0058
:100010000C943F000C943F000C943F000C943F0064
:100020000C943F000C943F000C943F000C943F0054
:100030000C943F000C943F000C943F000C943F0044
:100040000C943F000C943F000C943F000C943F0034
:100050000C943F0011241FBECFE5D8E0DEBFCDBF1A
:1000600010E0A0E6B0E0E2E6F2E002C005900D92FA
:10007000A236B107D9F70E9498000C942F010C9476
:1000800000001F920F920FB60F9211242F938F939F
:100090009F93DF93CF93CDB7DEB7809160009091AF
:1000A0006100C2969093610080936000809160002F
:1000B0009091610021E08D32920734F08CE291E062
:1000C0009093610080936000CF91DF919F918F9119
:1000D0002F910F900FBE0F901F9018951F920F92A7
:1000E0000FB60F9211248F939F93DF93CF93CDB7C9
:1000F000DEB78091600090916100C297909361009B
:10010000809360008091600090916100181619063C
:1001100034F081E090E09093610080936000CF9193
:10012000DF919F918F910F900FBE0F901F901895A8
:100130000F931F93DF93CF9300D000D000D0CDB7A3
:10014000DEB781E390E020E2FC01208387E390E0CA
:100150002FEFFC01208388E390E02EEFFC01208349
:100160008BE590E020ECFC01208385E590E025E51F
:1001700030E0F90120812260FC01208385E590E0D8
:1001800025E530E0F90120812E7FFC01208385E503
:1001900090E025E530E0F90120812860FC01208312
:1001A00085E590E025E530E0F90120812B7FFC0119
:1001B000208378941A82198201C000008BE390E0BA
:1001C000FC01108280916000909161009C838B8380
:1001D0008B819C818C01C8010197F1F78C011C83F4
:1001E0000B838BE390E02FEFFC0120838091600074
:1001F0009091610024EF31E0A901481B590BCA011D
:100200009E838D838D819E818C01C8010197F1F7BA
:100210008C011E830D8320916000309161008981E3
:100220009A81820F931F9093610080936000809168
:10023000600090916100E1E08D329E0744F480916E
:10024000600090916100833091050CF0B6CF8981F8
:100250009A81909581959F4F9A838983AFCFF89427
:02026000FFCFCE
:020262000A0090
:00000001FF
