:100000000C942A000C9434000C9434000C943400AA
:100010000C9434000C9434000C9434000C94340090
:100020000C9434000C9434000C9434000C94340080
:100030000C9434000C9434000C9434000C94340070
:100040000C9434000C9434000C9434000C94340060
:100050000C94340011241FBECFE5D8E0DEBFCDBF25
:100060000E9436000C94BE000C940000DF93CF93E6
:10007000CDB7DEB70E946A0080E090E0CF91DF91BB
:1000800008950F931F93DF93CF9300D0CDB7DEB7C2
:1000900084E390E023E0FC01208385E390E022E00C
:1000A000FC01208385E390E025E330E0F901308115
:1000B00023E02327FC01208380E593EC9A83898346
:1000C00089819A818C01C8010197F1F78C011A830B
:1000D0000983E8CF0F931F93DF93CF93CDB7DEB79C
:1000E00028970FB6F894DEBF0FBECDBF8AE390E02D
:1000F0002FEFFC0120831E821D821A82198281E06B
:1001000090E09C838B838D819E818160809590950A
:100110009E838D838BE390E021E030E0098002C074
:10012000220F331F0A94E2F72095FC0120832981D6
:100130003A818B819C81820F931F9A838983898165
:100140009A81833091052CF489819A8118161906B9
:100150003CF08B819C81909581959F4F9C838B83F4
:1001600080E593EC98878F838F8198858C01C801F7
:100170000197F1F78C0118870F83CCCFF894FFCF4C
:00000001FF
